:020000040800F2
:10000000444C0020A567000861D5000871D50008A0
:1000100079D5000881D5000889D5000800000000C6
:10002000000000000000000000000000F5040108CE
:1000300091D50008000000002D070108A1D5000897
:10004000F9670008F9670008F9670008F967000810
:10005000F9670008F9670008F9670008F967000800
:10006000F9670008F9670008F9670008F9670008F0
:10007000F9670008F9670008F9670008F9670008E0
:10008000F9670008F9670008F9670008F9670008D0
:10009000F9670008F9670008F9670008F9670008C0
:1000A000F9670008F9670008F9670008F9670008B0
:1000B000F9670008F9670008F9670008F9670008A0
:1000C000F9670008F9670008F9670008F967000890
:1000D000F9670008F9670008F9670008F967000880
:1000E000F9670008F9670008F9670008F967000870
:1000F000ADD50008F9670008F9670008F96700083E
:10010000F9670008F9670008F9670008F96700084F
:10011000F9670008F9670008F9670008F96700083F
:10012000F9670008F9670008F9670008F96700082F
:10013000F9670008F9670008F9670008F96700081F
:10014000F9670008F9670008F9670008F96700080F
:10015000F9670008F9670008F9670008F9670008FF
:10016000F9670008F9670008F9670008F9670008EF
:10017000F9670008F9670008F9670008F9670008DF
:10018000F9670008F967000810B5054C237833B902
:10019000044B13B10448AFF300800123237010BD5A
:1001A0004004002000000000286F0108084B10B533
:1001B0001BB108490848AFF300800848036803B939
:1001C00010BD074B002BFBD0BDE81040184700BF07
:1001D0000000000044040020286F01083C040020B7
:1001E0000000000080B584B000AF78600023FB60A1
:1001F0000023BB607B68002B01D10123C8E07B6832
:1002000093F83D30DBB2002B06D17B68002283F8E7
:100210003C2078680DF052FA7B68242283F83D2058
:100220007B681B687A681268126822F001021A6003
:100230000AF09AFFB860BB68574AA2FB03239B0CE5
:10024000FB607B681B68FA685A607B681A687B6889
:100250005B6852498B4202D8FB68013309E0FB68B6
:100260004FF4967101FB03F34D49A1FB03139B0966
:10027000013313627B6819687B685B68474A934265
:1002800012D87B685B685B00BA68B2FBF3F3C3F318
:100290000B03032B06D97B685B685B00BA68B2FB73
:1002A000F3F345E0042343E07B689B68002B0FD108
:1002B0007B685A6813465B001344BA68B2FBF3F3D9
:1002C000C3F30B03002B0CBF01230023DBB210E0B0
:1002D0007B685A6813469B0013449A001344BA681B
:1002E000B2FBF3F3C3F30B03002B0CBF012300237A
:1002F000DBB2002B01D001231AE07B689B68002B46
:100300000AD17B685A6813465B001344BA68B2FB93
:10031000F3F343F400430BE07B685A6813469B00F9
:1003200013449A001344BA68B2FBF3F343F4404316
:10033000CB617B681B687A68D1697A68126A0A4364
:100340001A607B681B687A6811697A68D2680A4308
:100350009A607B681B687A6851697A6892690A4377
:10036000DA607B681B687A681268126842F00102E2
:100370001A607B6800221A647B68202283F83D2083
:100380007B6800221A637B68002283F83E200023EA
:1003900018461037BD4680BD83DE1B43A086010092
:1003A000D34D621080B582B000AF78607B68002BBF
:1003B00001D1012321E07B68242283F83D207B6862
:1003C0001B687A681268126822F001021A60786865
:1003D0000DF0CCF97B6800221A647B68002283F858
:1003E0003D207B6800221A637B68002283F83E2050
:1003F0007B68002283F83C20002318460837BD465E
:1004000080BD00BF80B483B000AF786000BF0C3700
:10041000BD465DF8047B704780B483B000AF786060
:1004200000BF0C37BD465DF8047B704780B588B0CF
:1004300002AFF8607A601A460B467B8113463B8117
:1004400000237B610DF046FF7861FB6893F83D3037
:10045000DBB2202B40F0BA807B6900931923012284
:100460005D49F86804F088F90346002B01D00223A7
:10047000ADE0FB6893F83C30012B01D10223A6E0EC
:10048000FB68012283F83C20FB681B68FA6812684D
:10049000126822F400621A60FB68212283F83D2072
:1004A000FB68102283F83E20FB6800221A64FB6878
:1004B0004A4ADA6279897B693A6AF86803F0BAFDD8
:1004C0000346002B0FD0FB681B6C042B05D1FB6887
:1004D000002283F83C20012379E0FB68002283F8A6
:1004E0003C20032373E000233B61FB681B685B69CE
:1004F0003B61FB681B689B693B613B694DE07A6926
:10050000396AF86804F0F4F90346002B0FD0FB6851
:100510001B6C042B09D1FB681B68FA68126812680F
:1005200042F400721A60012351E003234FE0FB689C
:100530001A687B68591C79601B7813613B89013B01
:100540003B81FB681B685B6903F00403002B0CD044
:100550003B89002B09D0FB681A687B68591C7960BD
:100560001B7813613B89013B3B817A69396AF868E2
:1005700004F0FCF90346002B0FD0FB681B6C042B26
:1005800009D1FB681B68FA681268126842F40072AD
:100590001A6001231BE0032319E03B89002BAED135
:1005A000FB681B68FA681268126842F400721A60ED
:1005B000FB68202283F83D20FB68002283F83E2060
:1005C000FB68002283F83C20002300E00223184649
:1005D0001837BD4680BD00BF020010000000FFFFBD
:1005E00080B58CB002AFF8607A601A460B467B810A
:1005F00013463B8100237B620DF06CFE7862FB6842
:1006000093F83D30DBB2202B40F094817B6A00935D
:10061000192301229549F86804F0AEF80346002B2F
:1006200001D0022387E1FB6893F83C30012B01D114
:10063000022380E1FB68012283F83C20FB681B68F1
:10064000FA681268126822F400621A60FB682222BB
:1006500083F83D20FB68102283F83E20FB680022CF
:100660001A64FB68824ADA6279897B6A3A6BF868B5
:1006700003F062FD0346002B0FD0FB681B6C042BBC
:1006800005D1FB68002283F83C20012353E1FB687D
:10069000002283F83C2003234DE13B89002B13D13A
:1006A00000233B62FB681B685B693B62FB681B685D
:1006B0009B693B623B6AFB681B68FA6812681268B8
:1006C00042F400721A6023E13B89012B1BD1FB68C5
:1006D0001B68FA681268126822F480621A600023AC
:1006E000FB61FB681B685B69FB61FB681B689B69BE
:1006F000FB61FB69FB681B68FA681268126842F4C8
:1007000000721A6004E13B89022B1BD1FB681B6855
:10071000FA681268126822F480621A60FB681B682B
:10072000FA681268126842F400621A600023BB6122
:10073000FB681B685B69BB61FB681B689B69BB61ED
:10074000BB69E5E0FB681B68FA681268126842F44E
:1007500080621A6000237B61FB681B685B697B61B8
:10076000FB681B689B697B617B69D1E03B89032B3C
:1007700000F2A1803B89012B1BD17A6A396BF868A2
:1007800004F06CF90346002B07D0FB681B6C202B90
:1007900001D10323CFE00123CDE07B685A1C7A60AE
:1007A000FA6812681269D2B21A703B89013B3B8128
:1007B000AEE03B89022B2BD17B6A00933B6B00227E
:1007C0002C49F86803F0D8FF0346002B01D003231F
:1007D000B1E0FB681B68FA681268126842F40072A4
:1007E0001A607B685A1C7A60FA6812681269D2B281
:1007F0001A703B89013B3B817B685A1C7A60FA681E
:1008000012681269D2B21A703B89013B3B817FE0CA
:100810007B6A00933B6B00221649F86803F0ACFF3B
:100820000346002B01D0032385E0FB681B68FA68B0
:100830001268126822F480621A607B685A1C7A601F
:10084000FA6812681269D2B21A703B89013B3B8187
:100850007B6A00933B6B00220649F86803F08CFF2B
:100860000346002B08D0032365E000BF0200100000
:100870000000FFFF04000100FB681B68FA681268B3
:10088000126842F400721A607B685A1C7A60FA6837
:1008900012681269D2B21A703B89013B3B817B68B6
:1008A0005A1C7A60FA6812681269D2B21A703B89CF
:1008B000013B3B812CE07A6A396BF86804F0CEF892
:1008C0000346002B07D0FB681B6C202B01D10323B0
:1008D00031E001232FE07B685A1C7A60FA681268C5
:1008E0001269D2B21A703B89013B3B81FB681B68DD
:1008F0005B6903F00403002B0AD07B685A1C7A6002
:10090000FA6812681269D2B21A703B89013B3B81C6
:100910003B89002B7FF42AAFFB68202283F83D201F
:10092000FB68002283F83E20FB68002283F83C200D
:10093000002300E0022318462837BD4680BD00BFD3
:1009400080B58AB002AFF860B9603B601346FB80A7
:100950000023FB610DF0BEFCF861FB6893F83D30AD
:10096000DBB2202B40F0D680BB68002B02D0FB8886
:10097000002B01D10123CEE0FB6900931923012252
:100980006749F86803F0F8FE0346002B01D0022304
:10099000C1E0FB6893F83C30012B01D10223BAE09F
:1009A000FB68012283F83C20FB681B68FA68126828
:1009B000126822F400621A60FB68212283F83D204D
:1009C000FB68202283F83E20FB6800221A64FB6843
:1009D000544ADA62FB681B68FA681268126842F4CB
:1009E00080621A60FB6900933B6800224E49F868F8
:1009F00003F0C2FE0346002B01D003238BE000234B
:100A0000BB61FB681B685B69BB61FB681B689B691A
:100A1000BB61BB69FB681B69B3F5404F4ED1FB69F5
:100A200000933B6800224049F86803F0A5FE0346A6
:100A3000002B01D003236EE000237B61FB681B6861
:100A40005B697B61FB681B689B697B617B6935E047
:100A5000FA693968F86803F04BFF0346002B0FD0A2
:100A6000FB681B68FA681268126822F480621A60D8
:100A7000FB681B6C042B01D101234CE003234AE0EB
:100A8000FB681A68BB68591CB9601B781361FB8846
:100A9000013BFB80FB681B685B6903F00403002BD0
:100AA0000CD0FB88002B09D0FB681A68BB68591C66
:100AB000B9601B781361FB88013BFB80FB88002B2E
:100AC000C6D1FB6900933B6800224FF48231F8687D
:100AD00003F052FE0346002B01D003231BE0FB680A
:100AE0001B686FF480625A61FB681B68FA681268C1
:100AF000126822F480621A60FB68202283F83D208D
:100B0000FB68002283F83E20FB68002283F83C202B
:100B1000002300E0022318462037BD4680BD00BFF9
:100B2000020010000000FFFF0200010080B58AB043
:100B300002AFF860B9603B601346FB800023FB61A5
:100B40000DF0C8FBF861FB6893F83D30DBB2202B59
:100B500040F0CF80BB68002B02D0FB88002B01D176
:100B60000123C7E0FB690093192301226349F86858
:100B700003F002FE0346002B01D00223BAE0FB681B
:100B800093F83C30012B01D10223B3E0FB68012232
:100B900083F83C20FB681B68FA681268126822F42C
:100BA00000621A60FB68222283F83D20FB68202245
:100BB00083F83E20FB6800221A64FB68504ADA6220
:100BC000FB681B68FA681268126842F480621A6057
:100BD000FB6900933B6800224A49F86803F0CCFDAA
:100BE0000346002B01D0032384E00023BB61FB6894
:100BF0001B685B69BB61FB681B689B69BB61BB6968
:100C000037E0FA693968F86803F028FF0346002BDB
:100C10000FD0FB681B68FA681268126822F48062C1
:100C20001A60FB681B6C202B01D1032362E00123B7
:100C300060E0BB685A1CBA60FA6812681269D2B2E6
:100C40001A70FB88013BFB80FB681B685B6903F043
:100C50000403002B0DD0FB88002B0AD0BB685A1C64
:100C6000BA60FA6812681269D2B21A70FB88013B46
:100C7000FB80FB88002BC4D1FA693968F86803F05F
:100C8000B3FE0346002B0FD0FB681B68FA6812689E
:100C9000126822F480621A60FB681B6C042B01D17D
:100CA000012327E0032325E000237B61FB681B6809
:100CB0005B697B61FB681B68FA681268126842F026
:100CC00001021A607B69FB681B68FA681268126887
:100CD00022F480621A60FB68202283F83D20FB68C2
:100CE000002283F83E20FB68002283F83C2000238A
:100CF00000E0022318462037BD4680BD02001000E8
:100D00000000FFFF0200010080B487B000AFF86070
:100D10007A601A460B467B8113463B8100237B6138
:100D2000FB6893F83D30DBB2202B68D1374B1B6852
:100D3000DB08374AA2FB03231A0A13469B0013441D
:100D40009A0013447B617B695A1E7A61002B0CD197
:100D5000FB6800221A63FB68202283F83D20FB68B1
:100D6000002283F83C2003234AE0FB681B689B6950
:100D700003F00203002BE6D1FB6893F83C30012B13
:100D800001D102233CE0FB68012283F83C20FB6890
:100D90001B68FA681268126822F400621A60FB6825
:100DA000212283F83D20FB68102283F83E20FB6857
:100DB00000221A64FB687A685A62FB683A891A85CD
:100DC000FB683A895A85FB68124ADA627A89FB68BD
:100DD0005A64FB681B68FA681268126842F48072F1
:100DE0001A60FB68002283F83C20FB681B68FA68E5
:100DF0001268526842F4E0625A60002300E0022365
:100E000018461C37BD465DF8047B70470000002083
:100E100089B5F8140000FFFF80B487B000AFF86018
:100E20007A601A460B467B8113463B8100237B6127
:100E3000FB6893F83D30DBB2202B70D13B4B1B6835
:100E4000DB083B4AA2FB03231A0A13469B00134408
:100E50009A0013447B617B695A1E7A61002B0CD186
:100E6000FB6800221A63FB68202283F83D20FB68A0
:100E7000002283F83C20032352E0FB681B689B6937
:100E800003F00203002BE6D1FB6893F83C30012B02
:100E900001D1022344E0FB68012283F83C20FB6877
:100EA0001B68FA681268126822F400621A60FB6814
:100EB000222283F83D20FB68102283F83E20FB6845
:100EC00000221A64FB687A685A62FB683A891A85BC
:100ED000FB683A895A85FB68164ADA627A89FB68A8
:100EE0005A64FB681B68FA681268126842F48062F0
:100EF0001A60FB681B68FA681268126842F4807214
:100F00001A60FB68002283F83C20FB681B68FA68C3
:100F10001268526842F4E0625A60002300E0022343
:100F200018461C37BD465DF8047B70470000002062
:100F300089B5F8140000FFFF80B487B000AFF860F7
:100F40007A601A460B467B8113463B8100237B6106
:100F500000233B61FB6893F83D30DBB2202B40F06F
:100F60008A803B6A042B02D03B6A012B25D1454B7A
:100F70001B68DB08444AA2FB03231A0A13469B00A2
:100F800013449A0013443B613B695A1E3A61002B9B
:100F90000CD1FB6800221A63FB68202283F83D20F5
:100FA000FB68002283F83C20032365E0FB681B6894
:100FB0009B6903F00203002BE6D1FB6893F83C30F9
:100FC000012B01D1022357E0FB68012283F83C206A
:100FD000FB681B68FA681268126822F400621A60E3
:100FE000FB68212283F83D20FB68102283F83E2015
:100FF000FB6800221A64FB687A685A62FB683A89C7
:101000001A85FB683A895A85FB683A6ADA627A89F6
:10101000FB685A64FB681B6B7B617B69122B02D0F7
:101020007B69002B19D13B6A042B02D03B6A012B50
:1010300008D1FB681B68FA681268126842F4807273
:101040001A600AE07B69122B07D1FB681B68FA68FB
:101050001268126842F480721A60FB68002283F8FA
:101060003C20FB681B68FA681268526842F4E06230
:101070005A60002300E0022318461C37BD465DF885
:10108000047B70470000002089B5F81480B487B055
:1010900000AFF8607A601A460B467B8113463B81AD
:1010A00000237B6100233B61FB6893F83D30DBB29A
:1010B000202B40F09E803B6A042B02D03B6A012B20
:1010C00025D14F4B1B68DB084E4AA2FB03231A0AAB
:1010D00013469B0013449A0013443B613B695A1E1C
:1010E0003A61002B0CD1FB6800221A63FB682022B6
:1010F00083F83D20FB68002283F83C20032379E03D
:10110000FB681B689B6903F00203002BE6D1FB68B8
:1011100093F83C30012B01D102236BE0FB680122E4
:1011200083F83C20FB681B68FA681268126822F496
:1011300000621A60FB68222283F83D20FB681022BF
:1011400083F83E20FB6800221A64FB687A685A62C2
:10115000FB683A891A85FB683A895A85FB683A6ABE
:10116000DA627A89FB685A64FB681B6B7B617B6976
:10117000112B02D07B69002B2DD13B6A042B06D0AA
:101180003B6A012B03D03B6A13F5803F10D1FB680B
:101190001B68FA681268126842F480621A60FB6881
:1011A0001B68FA681268126842F480721A6012E0D2
:1011B0007B69112B0FD1FB681B68FA6812681268F3
:1011C00042F480621A60FB681B68FA681268126851
:1011D00042F480721A60FB68002283F83C20FB68AE
:1011E0001B68FA681268526842F4E0625A60002391
:1011F00000E0022318461C37BD465DF8047B7047AB
:101200000000002089B5F81480B487B000AFF86002
:10121000B9601346FB8000237B61FB6893F83D3087
:10122000DBB2202B6DD1BB68002B02D0FB88002BDA
:1012300001D1012366E0364B1B68DB08354AA2FB6F
:1012400003231A0A13469B0013449A0013447B613C
:101250007B695A1E7A61002B0CD1FB6800221A634D
:10126000FB68202283F83D20FB68002283F83C20A5
:10127000032347E0FB681B689B6903F00203002B14
:10128000E6D1FB6893F83C30012B01D1022339E011
:10129000FB68012283F83C20FB681B68FA6812682F
:1012A000126822F400621A60FB68212283F83D2054
:1012B000FB68202283F83E20FB6800221A64FB684A
:1012C000BA685A62FB68FA881A85FB68FA885A85F8
:1012D000FB68114ADA62FB681B68FA6812681268D8
:1012E00042F480621A60FB68002283F83C20FB68AD
:1012F0001B68FA681268526842F4E0625A60002380
:1013000000E0022318461C37BD465DF8047B704799
:101310000000002089B5F8140000FFFF80B487B0FA
:1013200000AFF860B9601346FB8000237B61FB6867
:1013300093F83D30DBB2202B6DD1BB68002B02D07F
:10134000FB88002B01D1012366E0364B1B68DB08CC
:10135000354AA2FB03231A0A13469B0013449A0042
:1013600013447B617B695A1E7A61002B0CD1FB68A8
:1013700000221A63FB68202283F83D20FB680022CC
:1013800083F83C20032347E0FB681B689B6903F05C
:101390000203002BE6D1FB6893F83C30012B01D10E
:1013A000022339E0FB68012283F83C20FB681B68BC
:1013B000FA681268126822F400621A60FB6822223E
:1013C00083F83D20FB68202283F83E20FB68002242
:1013D0001A64FB68BA685A62FB68FA881A85FB6867
:1013E000FA885A85FB68114ADA62FB681B68FA685A
:1013F0001268126842F480621A60FB68002283F867
:101400003C20FB681B68FA681268526842F4E0628C
:101410005A60002300E0022318461C37BD465DF8E1
:10142000047B70470000002089B5F8140000FFFF1E
:1014300080B487B000AFF860B9603B601346FB80B2
:10144000FB6893F83D30DBB2282B4AD1BB68002BF8
:1014500002D0FB88002B01D1012343E0FB6893F805
:101460003C30012B01D102233CE0FB68012283F8D0
:101470003C20FB681B68FA681268126822F400625C
:101480001A60FB68292283F83D20FB68202283F83C
:101490003E20FB6800221A64FB68BA685A62FB6847
:1014A000FA881A85FB68FA885A85FB683A68DA6216
:1014B00000237B61FB681B685B697B61FB681B68C1
:1014C0009B697B617B69FB68002283F83C20FB6899
:1014D0001B68FA681268526842F4E0625A6000239E
:1014E00000E0022318461C37BD465DF8047B7047B8
:1014F00080B487B000AFF860B9603B601346FB80F2
:10150000FB6893F83D30DBB2282B4AD1BB68002B37
:1015100002D0FB88002B01D1012343E0FB6893F844
:101520003C30012B01D102233CE0FB68012283F80F
:101530003C20FB681B68FA681268126822F400629B
:101540001A60FB682A2283F83D20FB68202283F87A
:101550003E20FB6800221A64FB68BA685A62FB6886
:10156000FA881A85FB68FA885A85FB683A68DA6255
:1015700000237B61FB681B685B697B61FB681B6800
:101580009B697B617B69FB68002283F83C20FB68D8
:101590001B68FA681268526842F4E0625A600023DD
:1015A00000E0022318461C37BD465DF8047B7047F7
:1015B00080B483B000AF78607B6893F83D30DBB2D5
:1015C000202B15D17B68282283F83D207B681B687F
:1015D0007A681268126842F480621A607B681B683D
:1015E0007A681268526842F440725A60002300E040
:1015F000022318460C37BD465DF8047B704700BFD8
:1016000080B485B000AF78607B6893F83D30DBB282
:10161000282B29D17B6893F83D30DBB203F003031C
:10162000FB607B6893F83E30DBB21A46FB681A43D6
:101630007B681A637B68202283F83D207B68002248
:1016400083F83E207B681B687A681268126822F46F
:1016500080621A607B681B687A681268526822F49C
:1016600040725A60002300E0022318461437BD463A
:101670005DF8047B704700BF80B588B000AFF860AC
:101680007A601A460B467B8113463B810023FB613F
:101690000023BB610CF01EFEF861FB6893F83D303F
:1016A000DBB2202B40F0E180724B1B68DB08724AF2
:1016B000A2FB03231A0A13469B0013449A00134407
:1016C000BB61BB695A1EBA61002B0CD1FB680022BA
:1016D0001A63FB68202283F83D20FB68002283F810
:1016E0003C200323C2E0FB681B689B6903F00203F4
:1016F000002BE6D1FB6893F83C30012B01D102238B
:10170000B4E0FB68012283F83C20FB681B68FA68A0
:101710001268126822F400621A60FB68212283F8C2
:101720003D20FB68102283F83E20FB6800221A64EB
:10173000FB687A685A62FB683A891A85FB683A89BD
:101740005A85FB684D4ADA62FB681B8D002B56D028
:10175000FB685B6B4A4ADA63FB685B6B494ADA6495
:10176000FB685B6B00221A64FB685B6B00225A64A7
:10177000FB685B6B00229A64FB685B6B00221A6556
:10178000FB68586B7968FB681B6810331A463B8905
:101790000BF0BAF97989FB692322F86802F04AFC58
:1017A0000346002B0FD0FB681B6C042B05D1FB6894
:1017B000002283F83C20012358E0FB68002283F8D4
:1017C0003C20032352E000237B61FB681B685B69BC
:1017D0007B61FB681B689B697B617B69FB681B689D
:1017E000FA681268526842F480725A60FB681B689B
:1017F000FA681268526842F400625A602FE07989F0
:10180000FB692322F86802F015FC0346002B0FD079
:10181000FB681B6C042B05D1FB68002283F83C207D
:10182000012323E0FB68002283F83C2003231DE012
:1018300000233B61FB681B685B693B61FB681B68BD
:101840009B693B613B69FB681B68FA681268126818
:1018500042F400721A60FB68202283F83D20FB6886
:10186000002283F83C20002300E0022318462037A2
:10187000BD4680BD0000002089B5F8140000FFFFC0
:10188000C5450008B146000880B588B000AFF860D3
:101890007A601A460B467B8113463B810023FB612D
:1018A0000023BB610CF016FDF861FB6893F83D3036
:1018B000DBB2202B40F0F9807E4B1B68DB087E4AB0
:1018C000A2FB03231A0A13469B0013449A001344F5
:1018D000BB61BB695A1EBA61002B0CD1FB680022A8
:1018E0001A63FB68202283F83D20FB68002283F8FE
:1018F0003C200323DAE0FB681B689B6903F00203CA
:10190000002BE6D1FB6893F83C30012B01D1022378
:10191000CCE0FB68012283F83C20FB681B68FA6876
:101920001268126822F400621A60FB68222283F8AF
:101930003D20FB68102283F83E20FB6800221A64D9
:10194000FB687A685A62FB683A891A85FB683A89AB
:101950005A85FB68594ADA62FB681B8D002B6ED0F2
:10196000FB689B6B564ADA63FB689B6B554ADA64EB
:10197000FB689B6B00221A64FB689B6B00225A6415
:10198000FB689B6B00229A64FB689B6B00221A65C4
:10199000FB68986BFB681B68103319467A683B89B3
:1019A0000BF0B2F87989FB692322F86802F0C4FBD6
:1019B0000346002B0FD0FB681B6C042B05D1FB6882
:1019C000002283F83C20012370E0FB68002283F8AA
:1019D0003C2003236AE03B89012B08D1FB681B688C
:1019E000FA681268126822F480621A6007E0FB68E5
:1019F0001B68FA681268526842F480525A600023E9
:101A00007B61FB681B685B697B61FB681B689B698A
:101A10007B617B69FB68002283F83C20FB681B68C4
:101A2000FA681268526842F480725A60FB681B6858
:101A3000FA681268526842F400625A6033E07989A9
:101A4000FB692322F86802F077FB0346002B0FD0D6
:101A5000FB681B6C042B05D1FB68002283F83C203B
:101A6000012323E0FB68002283F83C2003231DE0D0
:101A700000233B61FB681B685B693B61FB681B687B
:101A80009B693B613B69FB681B68FA6812681268D6
:101A900042F400721A60FB68202283F83D20FB6844
:101AA000002283F83C20002300E002231846203760
:101AB000BD4680BD0000002089B5F8140000FFFF7E
:101AC000C5450008B146000880B582B000AF786017
:101AD0000B467B807B6893F83E30DBB2102B3FD106
:101AE0007B6893F83C30012B01D1022339E07B68FD
:101AF000012283F83C207B6800221A637B68602205
:101B000083F83D207B681B687A681268126822F4AB
:101B100080621A607B681B687A681268126842F4F7
:101B200000721A607B6800225A857B681B687A689D
:101B30001268526822F4E0625A607B68002283F8DF
:101B40003C207B6893F83D30DBB2602B06D17B688C
:101B5000202283F83D20786801F034FB002300E068
:101B6000012318460837BD4680BD00BF80B588B048
:101B700000AFF860B9601346FB800023FB61FB688F
:101B800093F83D30DBB2202B40F01181BB68002B75
:101B900002D0FB88002B01D1012309E1864B1B6891
:101BA000DB08864AA2FB03231A0A13469B00134450
:101BB0009A001344FB61FB695A1EFA61002B0CD199
:101BC000FB6800221A63FB68202283F83D20FB6833
:101BD000002283F83C200323EAE0FB681B689B6932
:101BE00003F00203002BE6D1FB6893F83C30012B95
:101BF00001D10223DCE0FB68012283F83C20FB6872
:101C00001B68FA681268126822F400621A60FB68A6
:101C1000212283F83D20FB68202283F83E20FB68C8
:101C200000221A64FB68BA685A62FB68FA881A854F
:101C3000FB68FA885A85FB68614ADA62FB685B6B6D
:101C4000604ADA63FB685B6B5F4ADA64FB685B6B74
:101C500000221A64FB685B6B00225A64FB685B6BB2
:101C600000229A64FB685B6B00221A65FB68586B64
:101C7000B968FB681B6810331A46FB880AF044FFFA
:101C8000FB681B68FA681268526842F480725A60F6
:101C9000FB681B68FA681268526842F400625A6076
:101CA000FB681B68FA681268126842F480621A6066
:101CB000414B1B68DB08414AA2FB03231B0A42F28B
:101CC000107202FB03F3FB61FB695A1EFA61002BE1
:101CD0000CD1FB6800221A63FB68202283F83D20A8
:101CE000FB68002283F83C20032361E0FB681B684B
:101CF0005B6903F00203002BE6D0FB681B69B3F5B8
:101D0000804F0BD10023BB61FB681B685B69BB6123
:101D1000FB681B689B69BB61BB693AE000237B6180
:101D2000FB681B685B697B61FB681B689B697B6167
:101D30007B69214B1B68DB08204AA2FB03231B0A9B
:101D400042F2107202FB03F3FB61FB695A1EFA6157
:101D5000002B0CD1FB6800221A63FB68202283F859
:101D60003D20FB68002283F83C20032320E0FB6831
:101D70001B685B6903F00203002BE6D000233B6184
:101D8000FB681B685B693B61FB681B689B693B6187
:101D90003B69FB68002283F83C20FB681B68FA68FB
:101DA0001268526842F480725A60002300E00223F5
:101DB00018462037BD4680BD0000002089B5F814C4
:101DC0000000FFFFC5450008B146000880B586B099
:101DD00000AFF860B9601346FB8000237B61FB68AD
:101DE00093F83D30DBB2202B40F0D080BB68002B55
:101DF00002D0FB88002B01D10123C8E0664B1B6891
:101E0000DB08664AA2FB03231A0A13469B0013440D
:101E10009A0013447B617B695A1E7A61002B0CD1B6
:101E2000FB6800221A63FB68202283F83D20FB68D0
:101E3000002283F83C200323A9E0FB681B689B6910
:101E400003F00203002BE6D1FB6893F83C30012B32
:101E500001D102239BE0FB68012283F83C20FB6850
:101E60001B68FA681268126822F400621A60FB6844
:101E7000222283F83D20FB68202283F83E20FB6865
:101E800000221A64FB68BA685A62FB68FA881A85ED
:101E9000FB68FA885A85FB68414ADA62FB689B6BEB
:101EA000404ADA63FB689B6B3F4ADA64FB689B6BD2
:101EB00000221A64FB689B6B00225A64FB689B6BD0
:101EC00000229A64FB689B6B00221A65FB68986B82
:101ED000FB681B6810331946BA68FB880AF014FEC9
:101EE000FB681B68FA681268526842F480725A6094
:101EF000FB681B68FA681268526842F400625A6014
:101F0000FB681B68FA681268126842F480621A6003
:101F1000214B1B68DB08214AA2FB03231B0A42F268
:101F2000107202FB03F37B617B695A1E7A61002BFE
:101F30000CD1FB6800221A63FB68202283F83D2045
:101F4000FB68002283F83C20032320E0FB681B6829
:101F50005B6903F00203002BE6D000233B61FB68C2
:101F60001B685B693B61FB681B689B693B613B6964
:101F7000FB68002283F83C20FB681B68FA68126843
:101F8000526842F480725A60002300E0022318462F
:101F90001837BD4680BD00BF0000002089B5F81489
:101FA0000000FFFFC5450008B146000880B588B0B5
:101FB00002AFF860084611461A4603467B810B467D
:101FC0003B811346FB8000237B610CF083F9786131
:101FD000FB6893F83D30DBB2202B40F0B3807B6987
:101FE0000093192301225A49F86802F0C5FB034601
:101FF000002B01D00223A6E0FB6893F83C30012BB4
:1020000001D102239FE0FB68012283F83C20FB689A
:102010001B68FA681268126822F400621A60FB6892
:10202000212283F83D20FB68402283F83E20FB6894
:1020300000221A64FB68474ADA62F8883A8979898B
:102040007B690193BB6A00930346F86802F046F986
:102050000346002B45D0FB681B6C042B05D1FB68A5
:10206000002283F83C2001236DE0FB68002283F806
:102070003C20032367E07A69B96AF86802F038FC0B
:102080000346002B0FD0FB681B6C042B09D1FB68A7
:102090001B68FA681268126842F400721A60012321
:1020A00051E003234FE0FB681A683B6A591C396210
:1020B0001B781361BB8C013BBB84FB681B685B69AD
:1020C00003F00403002B0CD0BB8C002B09D0FB6861
:1020D0001A683B6A591C39621B781361BB8C013B3F
:1020E000BB84BB8C002BC6D17A69B96AF86802F050
:1020F0003DFC0346002B0FD0FB681B6C042B09D161
:10210000FB681B68FA681268126842F400721A6071
:10211000012318E0032316E0FB681B68FA681268C5
:10212000126842F400721A60FB68202283F83D2096
:10213000FB68002283F83E20FB68002283F83C20E5
:10214000002300E0022318461837BD4680BD00BFBB
:10215000020010000000FFFF80B58CB002AFF860F5
:10216000084611461A4603467B810B463B811346BF
:10217000FB8000237B620CF0ADF87862FB6893F87B
:102180003D30DBB2202B40F091817B6A0093192314
:1021900001229449F86802F0EFFA0346002B01D0BF
:1021A000022384E1FB6893F83C30012B01D1022328
:1021B0007DE1FB68012283F83C20FB681B68FA681C
:1021C0001268126822F400621A60FB68222283F807
:1021D0003D20FB68402283F83E20FB6800221A6401
:1021E000FB68814ADA62F8883A8979897B6A0193C7
:1021F000BB6B00930346F86802F002F90346002B1C
:102200000FD0FB681B6C042B05D1FB68002283F800
:102210003C2001234BE1FB68002283F83C20032390
:1022200045E1BB8E002B13D100233B62FB681B688A
:102230005B693B62FB681B689B693B623B6AFB68AE
:102240001B68FA681268126842F400721A601BE197
:10225000BB8E012B1BD1FB681B68FA6812681268E1
:1022600022F480621A600023FB61FB681B685B69D3
:10227000FB61FB681B689B69FB61FB69FB681B6872
:10228000FA681268126842F400721A60FCE0BB8EB1
:10229000022B1BD1FB681B68FA681268126822F4D3
:1022A00080621A60FB681B68FA681268126842F460
:1022B00000621A600023BB61FB681B685B69BB613D
:1022C000FB681B689B69BB61BB69DDE000237B6128
:1022D000FB681B685B697B61FB681B689B697B61B2
:1022E0007B69D1E0BB8E032B00F2A180BB8E012B5A
:1022F0001BD17A6AB96BF86802F0B0FB0346002B79
:1023000007D0FB681B6C202B01D10323CFE00123F6
:10231000CDE03B6B5A1C3A63FA6812681269D2B27C
:102320001A70BB8E013BBB86AEE0BB8E022B2BD15D
:102330007B6A0093BB6B00222C49F86802F01CFA00
:102340000346002B01D00323B1E0FB681B68FA6849
:102350001268126842F400721A603B6B5A1C3A63AE
:10236000FA6812681269D2B21A70BB8E013BBB8642
:102370003B6B5A1C3A63FA6812681269D2B21A703F
:10238000BB8E013BBB867FE07B6A0093BB6B002268
:102390001649F86802F0F0F90346002B01D0032338
:1023A00085E0FB681B68FA681268126822F4806294
:1023B0001A603B6B5A1C3A63FA6812681269D2B20F
:1023C0001A70BB8E013BBB867B6A0093BB6B0022FD
:1023D0000649F86802F0D0F90346002B08D0032321
:1023E00065E000BF020010000000FFFF04000100D4
:1023F000FB681B68FA681268126842F400721A607F
:102400003B6B5A1C3A63FA6812681269D2B21A70AE
:10241000BB8E013BBB863B6B5A1C3A63FA68126861
:102420001269D2B21A70BB8E013BBB862CE07A6A6D
:10243000B96BF86802F012FB0346002B07D0FB686B
:102440001B6C202B01D1032331E001232FE03B6BD8
:102450005A1C3A63FA6812681269D2B21A70BB8EBB
:10246000013BBB86FB681B685B6903F00403002B20
:102470000AD03B6B5A1C3A63FA6812681269D2B2EE
:102480001A70BB8E013BBB86BB8E002B7FF42AAF3C
:10249000FB68202283F83D20FB68002283F83E2061
:1024A000FB68002283F83C20002300E0022318464A
:1024B0002837BD4680BD00BF80B487B000AFF8604C
:1024C000084611461A4603467B810B463B8113465C
:1024D000FB8000237B61FB6893F83D30DBB2202B4F
:1024E00071D13C4B1B68DB083B4AA2FB03231A0A51
:1024F00013469B0013449A0013447B617B695A1E68
:102500007A61002B0CD1FB6800221A63FB68202241
:1025100083F83D20FB68002283F83C20032353E02E
:10252000FB681B689B6903F00203002BE6D1FB6884
:1025300093F83C30012B01D1022345E0FB680122D6
:1025400083F83C20FB681B68FA681268126822F462
:1025500000621A60FB68212283F83D20FB6840225C
:1025600083F83E20FB6800221A64FB683A6A5A62CC
:10257000FB68BA8C1A85FB68BA8C5A85FB68174AC7
:10258000DA627A89FB685A643A89FB689A64FA8845
:10259000FB68DA64FB6800221A65FB681B68FA684E
:1025A0001268126842F480721A60FB68002283F895
:1025B0003C20FB681B68FA681268526842F4E062CB
:1025C0005A60002300E0022318461C37BD465DF820
:1025D000047B70470000002089B5F8140000FFFF5D
:1025E00080B487B000AFF860084611461A4603462B
:1025F0007B810B463B811346FB8000237B61FB689C
:1026000093F83D30DBB2202B7DD1424B1B68DB08B9
:10261000414AA2FB03231A0A13469B0013449A0063
:1026200013447B617B695A1E7A61002B0CD1FB68D5
:1026300000221A63FB68202283F83D20FB680022F9
:1026400083F83C2003235FE0FB681B689B6903F071
:102650000203002BE6D1FB6893F83C30012B01D13B
:10266000022351E0FB68012283F83C20FB681B68D1
:10267000FA681268126822F400621A60FB6822226B
:1026800083F83D20FB68402283F83E20FB6800224F
:102690001A64FB683A6A5A62FB68BA8C1A85FB684E
:1026A000BA8C5A85FB681D4ADA627A89FB685A64DB
:1026B0003A89FB689A64FA88FB68DA64FB6800224E
:1026C0001A65FB681B68FA681268126842F4806237
:1026D0001A60FB681B68FA681268126842F480721C
:1026E0001A60FB68002283F83C20FB681B8D002BDE
:1026F00007D0FB681B68FA681268526842F4E0620F
:102700005A60002300E0022318461C37BD465DF8DE
:10271000047B70470000002089B5F8140000FFFF1B
:1027200080B588B002AFF860084611461A460346E5
:102730007B810B463B811346FB8000237B610BF0C2
:10274000C9FD786100233B61FB6893F83D30DBB243
:10275000202B40F0D5806D4B1B68DB086C4AA2FB38
:1027600003231A0A13469B0013449A0013443B6147
:102770003B695A1E3A61002B0CD1FB6800221A6398
:10278000FB68202283F83D20FB68002283F83C2070
:102790000323B6E0FB681B689B6903F00203002B70
:1027A000E6D1FB6893F83C30012B01D10223A8E06D
:1027B000FB68012283F83C20FB681B68FA681268FA
:1027C000126822F400621A60FB68212283F83D201F
:1027D000FB68402283F83E20FB6800221A64FB68F5
:1027E0003A6A5A62FB68BA8C1A85FB68BA8C5A85B9
:1027F000FB68484ADA62FB681B8D002B50D0FB68EF
:102800005B6B454ADA63FB685B6B444ADA64FB68DE
:102810005B6B00221A64FB685B6B00225A64FB68E6
:102820005B6B00229A64FB685B6B00221A65FB6895
:10283000586B396AFB681B6810331A46BB8C0AF068
:1028400063F9F8883A8979897B6901932323009396
:102850000346F86801F042FD0346002B0FD0FB68E9
:102860001B6C042B05D1FB68002283F83C2001235C
:1028700047E0FB68002283F83C20032341E0FB682B
:102880001B68FA681268526842F480725A60FB68EA
:102890001B68FA681268526842F400625A6029E0C4
:1028A000F8883A8979897B69019323230093034649
:1028B000F86801F0A5FD0346002B0FD0FB681B6CE8
:1028C000042B05D1FB68002283F83C20012318E08B
:1028D000FB68002283F83C20032312E0FB681B689E
:1028E000FA681268126842F400721A60FB682022CB
:1028F00083F83D20FB68002283F83C20002300E0A1
:10290000022318461837BD4680BD00BF00000020D6
:1029100089B5F8140000FFFFC5450008B14600085E
:1029200080B58AB002AFF860084611461A460346E1
:102930007B810B463B811346FB800023FB610BF040
:10294000C9FCF8610023BB61FB6893F83D30DBB242
:10295000202B40F00381844B1B68DB08834AA2FBD9
:1029600003231A0A13469B0013449A001344BB61C5
:10297000BB695A1EBA61002B0CD1FB6800221A6396
:10298000FB68202283F83D20FB68002283F83C206E
:102990000323E4E0FB681B689B6903F00203002B40
:1029A000E6D1FB6893F83C30012B01D10223D6E03D
:1029B000FB68012283F83C20FB681B68FA681268F8
:1029C000126822F400621A60FB68222283F83D201C
:1029D000FB68402283F83E20FB6800221A64FB68F3
:1029E000BA6A5A62FB68BA8D1A85FB68BA8D5A8535
:1029F000FB685F4ADA62FB681B8D002B73D0FB68B3
:102A00009B6B5C4ADA63FB689B6B5B4ADA64FB682E
:102A10009B6B00221A64FB689B6B00225A64FB6864
:102A20009B6B00229A64FB689B6B00221A65FB6813
:102A3000986BFB681B6810331946BA6ABB8D0AF0A5
:102A400063F8F8883A897989FB6901932323009315
:102A50000346F86801F0D4FC0346002B0FD0FB6856
:102A60001B6C042B05D1FB68002283F83C2001235A
:102A700075E0FB68002283F83C2003236FE0BB8DE8
:102A8000012B08D1FB681B68FA681268126822F4EF
:102A900080621A6007E0FB681B68FA681268526877
:102AA00042F480525A6000237B61FB681B685B69BB
:102AB0007B61FB681B689B697B617B69FB6800220B
:102AC00083F83C20FB681B68FA681268526842F47D
:102AD00080725A60FB681B68FA681268526842F498
:102AE00000625A6038E0F8883A897989FB69019375
:102AF000232300930346F86801F082FC0346002B71
:102B00000FD0FB681B6C042B05D1FB68002283F8F7
:102B10003C20012323E0FB68002283F83C200323B0
:102B20001DE000233B61FB681B685B693B61FB6840
:102B30001B689B693B613B69FB681B68FA6812680C
:102B4000126842F400721A60FB68202283F83D206C
:102B5000FB68002283F83C20002300E00223184693
:102B60002037BD4680BD00BF0000002089B5F814A5
:102B70000000FFFFC5450008B146000880B58CB0D5
:102B800002AFF8607A603B600B467B8100237B627A
:102B900000233B620023FB610023BB6101237B61B7
:102BA0000BF098FB7862FB6893F83D30DBB2202B8A
:102BB00040F0F9807B6A0093192301227C49F86870
:102BC00001F0DAFD0346002B01D00223ECE0FB68A4
:102BD00093F83C30012B01D10223E5E0FB68012290
:102BE00083F83C20FB681B68FA681268126822F4BC
:102BF00000621A60FB68242283F83D20FB680022F3
:102C00001A64FB686B4ADA62FB681B68FA68126830
:102C1000126842F480721A607B6A00933B6800225B
:102C20004FF00111F86801F0A7FD0346002B01D019
:102C30000323B9E0FB681B687A89D2B202F0FE0276
:102C40001A610BF047FB7862FB681B685B6903F055
:102C50000203002B14BF01230023DBB23B62FB689D
:102C60001B685B6903F48063002B14BF01230023FE
:102C7000DBB2FB61FB6893F83D30DBB2BB6129E05E
:102C80003B68002B07D00BF025FB02467B6AD21A6B
:102C90003B689A4203D9FB68A02283F83D20FB6879
:102CA0001B685B6903F00203002B14BF01230023A0
:102CB000DBB23B62FB681B685B6903F48063002B3B
:102CC00014BF01230023DBB2FB61FB6893F83D30A6
:102CD000DBB2BB613B6A002B05D1FB69002B02D143
:102CE000BB69A02BCCD1FB68202283F83D20FB6878
:102CF0001B685B6903F00203002B29D0FB681B688B
:102D0000FA681268126842F400721A6000233B618C
:102D1000FB681B685B693B61FB681B689B693B61E7
:102D20003B697B6A0093192301222149F86801F06D
:102D300023FD0346002B01D0032335E0FB6820224E
:102D400083F83D20FB68002283F83C2000232BE021
:102D5000FB681B68FA681268126842F400721A6015
:102D6000FB681B686FF480625A617B6A00931923C9
:102D700001220F49F86801F0FFFC0346002B01D047
:102D8000032311E07B695A1C7A617A689342FFF44D
:102D90003BAFFB68202283F83D20FB68002283F8CC
:102DA0003C20012300E0022318462837BD4680BDA1
:102DB000020010000000FFFF80B586B000AF786011
:102DC0007B681B689B697B617B681B685B693B61F7
:102DD0007B681B685B68FB607B6893F83E30DBB206
:102DE000BB60BB68102B02D0BB68402B72D13B6923
:102DF00003F00113002B08D0FB6803F40073002BD1
:102E000003D0786800F00EFD1AE03A69654B134074
:102E1000002B08D0FB6803F40073002B03D0786804
:102E200000F068FD0CE03A695F4B1340002B07D0BF
:102E3000FB6803F40073002B02D0786800F06CFD8F
:102E40007A695A4B1340002B22D03A69584B1340F1
:102E5000002B0DD0FB6803F48063002B08D03A6987
:102E6000544B1340002B03D1786800F0DDF930E0BB
:102E70003A69504B1340002B00F08F80FB6803F43D
:102E80000073002B00F08980786800F0D1FA84E0AC
:102E90003A69494B1340002B0DD0FB6803F4806363
:102EA000002B08D03A69434B1340002B03D17868BC
:102EB00000F040FB0DE03A693E4B1340002B6CD014
:102EC000FB6803F40073002B67D0786800F0E0FB28
:102ED00063E062E03A69344B1340002B08D0FB6892
:102EE00003F40073002B03D0786800F0F3FE55E084
:102EF0003A69324B1340002B08D0FB6803F400738F
:102F0000002B03D0786800F00FFF47E07A69274B69
:102F10001340002B20D03A69254B1340002B0DD0D5
:102F2000FB6803F48063002B08D03A69214B1340FF
:102F3000002B03D1786800F0F5FD2FE03A691D4BB6
:102F40001340002B2AD0FB6803F40073002B25D01C
:102F5000786800F031FE21E03A69174B1340002BEE
:102F60000DD0FB6803F48063002B08D03A69114B45
:102F70001340002B03D1786800F03EFE0EE03A6962
:102F80000C4B1340002B09D0FB6803F40073002B9B
:102F900004D0786800F07CFE00E000BF00BF183766
:102FA000BD4680BD080001000200010004001000C1
:102FB0008000010004000100400001001000010039
:102FC00080B588B000AF78600023FB610023BB614F
:102FD00000237B6100233B617B681B685B69FB60AE
:102FE0007B681B685B68BB60FA68464B1340002B2C
:102FF0000FD0BB6803F48073002B0AD07B681B6C76
:1030000043F001027B681A647B681B686FF480726E
:103010005A61FB6803F48133002B0FD0BB6803F4C3
:103020008073002B0AD07B681B6C43F002027B6824
:103030001A647B681B686FF400725A61FB6803F4C2
:103040008233002B3ED0BB6803F48073002B39D051
:103050007B6893F83E30DBB2FB617B685B8D9BB293
:10306000BB617B6893F83D30DBB27B617B681B6B97
:103070003B61FB69202B12D1BB69002B0FD17B690F
:10308000212B08D07B69292B05D07B69282B06D101
:103090003B69212B03D1786800F0A6FE12E07B6823
:1030A0001B6C43F004027B681A647B681B687A68B7
:1030B0001268126842F400721A607B681B686FF431
:1030C00080625A61FB6803F48433002B0FD0BB6825
:1030D00003F48073002B0AD07B681B6C43F008025A
:1030E0007B681A647B681B686FF400625A617B68B6
:1030F0001B6C002B02D0786800F0F6FE00BF203772
:10310000BD4680BD0001010080B483B000AF78608F
:1031100000BF0C37BD465DF8047B704780B483B0B8
:1031200000AF786000BF0C37BD465DF8047B704788
:1031300080B483B000AF786000BF0C37BD465DF847
:10314000047B704780B483B000AF786000BF0C3759
:10315000BD465DF8047B704780B483B000AF7860F3
:103160000B46FB7013463B8000BF0C37BD465DF835
:10317000047B704780B483B000AF786000BF0C3729
:10318000BD465DF8047B704780B483B000AF7860C3
:1031900000BF0C37BD465DF8047B704780B483B038
:1031A00000AF786000BF0C37BD465DF8047B704708
:1031B00080B483B000AF786000BF0C37BD465DF8C7
:1031C000047B704780B483B000AF786000BF0C37D9
:1031D000BD465DF8047B704780B483B000AF786073
:1031E0007B6893F83D30DBB218460C37BD465DF87E
:1031F000047B704780B483B000AF78607B6893F83D
:103200003E30DBB218460C37BD465DF8047B704794
:1032100080B483B000AF78607B681B6C18460C37B5
:10322000BD465DF8047B704780B586B000AF78601E
:103230007B6893F83D30DBB27B617B6893F83E306E
:10324000DBB23B617B68DB6AFB607B681B8D002B1C
:103250005DD17B69212B5AD1FB68042B2AD0FB68F6
:10326000082B27D0FB6813F5803F23D07B681B68B1
:103270007A681268526822F4E0625A607B6893F8B8
:103280003D30DBB203F00303BB607B6893F83E3054
:10329000DBB21A46BB681A437B681A637B6800225C
:1032A00083F83E207B68202283F83D207868FFF772
:1032B0002BFFB8E07B681B687A681268526822F4BA
:1032C000E0625A607B681B687A681268126842F490
:1032D00000721A607B6800221A637B68202283F8E0
:1032E0003D207B6893F83E30DBB2402B07D17B68F2
:1032F000002283F83E207868FFF746FF93E07B6862
:10330000002283F83E207868FFF7FEFE8BE07B69A1
:10331000212B07D03B69402B40F085807B69222B15
:1033200040F081807B685B8D9BB2002B08D17B686D
:103330001B687A681268526822F480625A6072E0F0
:103340007B6893F83E30DBB2402B5CD17B681B6D11
:10335000002B1ED17B68DB6C012B0BD17B681B68BB
:103360007A68926CD2B21A617B681B6D9A1C7B687A
:103370001A6558E07B681B687A68926C02F47F4299
:103380001212D2B21A617B681B6D5A1C7B681A65D7
:1033900049E07B681B6D012B0BD17B681B687A6849
:1033A000926CD2B21A617B681B6D5A1C7B681A65DD
:1033B00039E07B681B6D022B35D17B6893F83D307B
:1033C000DBB2222B08D17B681B687A68126812680E
:1033D00042F480721A6026E07B6893F83D30DBB2DD
:1033E000212B20D17B681A687B685B6A581C79683E
:1033F00048621B7813617B685B8D9BB2013B9AB27C
:103400007B685A850FE07B681A687B685B6A581C8A
:10341000796848621B7813617B685B8D9BB2013BC6
:103420009AB27B685A85002318461837BD4680BD7E
:1034300080B584B000AF78607B68DB6AFB607B6836
:1034400093F83D30DBB2212B6FD17B685B8D9BB253
:10345000002B10D07B681A687B685B6A581C7968FF
:1034600048621B7813617B685B8D9BB2013B9AB20B
:103470007B685A8559E0FB68042B2AD0FB68082B2F
:1034800027D0FB6813F5803F23D07B681B687A68E0
:103490001268526822F4E0625A607B6893F83D300B
:1034A000DBB203F00303BB607B6893F83E30DBB212
:1034B0001A46BB681A437B681A637B68002283F84C
:1034C0003E207B68202283F83D207868FFF71CFEB1
:1034D0002BE07B681B687A681268526822F4E0620D
:1034E0005A607B681B687A681268126842F400723E
:1034F0001A607B6800221A637B68202283F83D20D3
:103500007B6893F83E30DBB2402B07D17B6800220A
:1035100083F83E207868FFF737FE06E07B680022DC
:1035200083F83E207868FFF7EFFD00231846103738
:10353000BD4680BD80B584B000AF78607B6893F8ED
:103540003D30DBB2222B40F09E800023FB607B6885
:103550005B8D9BB2FB60FB68032B11D97B685B6AB8
:10356000591C7A6851627A6812681269D2B21A706C
:103570007B685B8D9BB2013B9AB27B685A8582E087
:10358000FB68022B02D0FB68032B25D17B68DB6A2A
:10359000022B10D07B681B687A681268126822F4CC
:1035A00080621A607B681B687A681268126842F44D
:1035B00000621A6007E07B681B687A68126812680C
:1035C00042F480621A607B681B687A6812685268ED
:1035D00022F480625A6056E07B68DB6A022B08D0D6
:1035E0007B681B687A681268126822F480621A602D
:1035F00007E07B681B687A681268126842F4806290
:103600001A607B681B687A681268526822F4E0626C
:103610005A607B685B6A591C7A6851627A681268E2
:103620001269D2B21A707B685B8D9BB2013B9AB271
:103630007B685A857B6893F83D30DBB203F0030367
:10364000FB607B6893F83E30DBB21A46FB681A4396
:103650007B681A637B68202283F83D207B6893F89F
:103660003E30DBB2402B07D17B68002283F83E203E
:103670007868FFF793FD06E07B68002283F83E2020
:103680007868FFF74BFD002318461037BD4680BD14
:1036900080B584B000AF78607B68DB6AFB607B68D4
:1036A0005B8D9BB2032B23D1FB68042B06D0FB68F8
:1036B000082B03D0FB6813F5803F07D17B681B689C
:1036C0007A681268126822F480621A607B685B6A0A
:1036D000591C7A6851627A6812681269D2B21A70FB
:1036E0007B685B8D9BB2013B9AB27B685A8593E005
:1036F0007B685B8D9BB2022B7DD1FB68042B2BD0AA
:10370000FB68082B28D0FB6813F5803F24D0FB68AA
:10371000022B08D07B681B687A681268126822F452
:1037200080621A6007E07B681B687A68126812681A
:1037300042F480621A607B6893F83D30DBB203F09C
:103740000303BB607B6893F83E30DBB21A46BB686C
:103750001A437B681A630AE07B6812221A637B684B
:103760001B687A681268126842F400721A607B68FB
:103770005B6A591C7A6851627A6812681269D2B21F
:103780001A707B685B8D9BB2013B9AB27B685A854D
:103790007B685B6A591C7A6851627A6812681269A0
:1037A000D2B21A707B685B8D9BB2013B9AB27B6888
:1037B0005A857B681B687A681268526822F44072E6
:1037C0005A607B68202283F83D207B6893F83E3066
:1037D000DBB2402B07D17B68002283F83E2078685B
:1037E000FFF7DCFC18E07B68002283F83E20786855
:1037F000FFF794FC10E07B685B6A591C7A685162A1
:103800007A6812681269D2B21A707B685B8D9BB2BB
:10381000013B9AB27B685A85002318461037BD4693
:1038200080BD00BF80B483B000AF78607B6893F840
:103830003E30DBB2402B15D17B681B6D002B07D1CE
:103840007B681B687A68526C02F0FE021A6149E0DC
:103850007B681B687A68526CD2B242F00102D2B225
:103860001A613FE07B681B69B3F5804F17D17B6815
:1038700093F83D30DBB2212B07D17B681B687A6857
:10388000526C02F0FE021A612CE07B681B687A68B9
:10389000526CD2B242F00102D2B21A6122E07B68CD
:1038A0001B6D002B0DD17B681B687A68526C02F48B
:1038B0004072D21152B262F00F0252B2D2B21A6109
:1038C00010E07B681B6D012B0CD17B681B687A684C
:1038D000526C02F44072D21152B262F00E0252B235
:1038E000D2B21A61002318460C37BD465DF8047B3E
:1038F000704700BF80B483B000AF78607B681B68FE
:103900007A68526CD2B21A61002318460C37BD4651
:103910005DF8047B704700BF80B48FB000AF786063
:103920007B6893F83E30DBB27B637B68DB6A3B638A
:103930007B681B6BFB627B6893F83D30DBB2222B0C
:1039400040F0DE807B681B6D002B0ED17B6B402B23
:103950000BD10023BB627B681B685B69BB627B6821
:103960001B689B69BB62BB6AD5E07B681B6D002B43
:103970001DD17B681B69B3F5404F18D100237B62D2
:103980007B681B685B697B627B681B689B697B62E9
:103990007B6A7B681B687A681268126842F48072DE
:1039A0001A607B681B6D5A1C7B681A65B3E07B68E4
:1039B0005B8D9BB2002B13D100233B627B681B689D
:1039C0005B693B627B681B689B693B623B6A7B6807
:1039D0001B687A681268126842F400721A608BE001
:1039E0007B685B8D9BB2012B45D13B6B042B26D0B2
:1039F0003B6B082B23D0FB6A122B20D07B68DB6A41
:103A0000022B08D07B681B687A681268126822F45F
:103A100080621A6007E07B681B687A681268126827
:103A200042F480621A600023FB617B681B685B695B
:103A3000FB617B681B689B69FB61FB695CE07B68E1
:103A40001B687A681268126822F480621A60002388
:103A5000BB617B681B685B69BB617B681B689B699A
:103A6000BB61BB697B681B687A681268126842F4A4
:103A700000721A6040E07B685B8D9BB2022B28D1FC
:103A80007B68DB6A022B10D07B681B687A6812683F
:103A9000126822F480621A607B681B687A68126878
:103AA000126842F400621A6007E07B681B687A685B
:103AB0001268126842F480621A6000237B617B689E
:103AC0001B685B697B617B681B689B697B617B69A9
:103AD00012E07B681B687A681268126842F48062A0
:103AE0001A6000233B617B681B685B693B617B68F4
:103AF0001B689B693B613B697B6800221A650AE091
:103B00000023FB607B681B685B69FB607B681B684C
:103B10009B69FB60FB68002318463C37BD465DF897
:103B2000047B704780B584B000AF78607B6893F801
:103B30003D30DBB2FB607B685B8D9BB2002B36D0E7
:103B40007B681A687B685B6A581C796848621B78D6
:103B500013617B685B8D9BB2013B9AB27B685A858F
:103B60007B685B8D9BB2002B21D1FB68292B1ED17A
:103B70007B681B687A681268526822F480625A6017
:103B80007B6893F83D30DBB203F00303BB607B68D6
:103B900093F83E30DBB21A46BB681A437B681A635F
:103BA0007B68282283F83D207868FFF7C1FA00235C
:103BB00018461037BD4680BD80B483B000AF786032
:103BC0007B685B8D9BB2002B0FD07B681A687B688B
:103BD0005B6A581C796848621B7813617B685B8D4F
:103BE0009BB2013B9AB27B685A85002318460C377A
:103BF000BD465DF8047B704780B584B000AF786047
:103C00007B6893F83D30DBB2FB607B685B8D9BB2D9
:103C1000002B37D07B685B6A591C7A6851627A68DE
:103C200012681269D2B21A707B685B8D9BB2013B3D
:103C30009AB27B685A857B685B8D9BB2002B21D141
:103C4000FB682A2B1ED17B681B687A681268526851
:103C500022F480625A607B6893F83D30DBB203F057
:103C60000303BB607B6893F83E30DBB21A46BB6847
:103C70001A437B681A637B68282283F83D207868A2
:103C8000FFF760FA002318461037BD4680BD00BF1D
:103C900080B483B000AF78607B685B8D9BB2002BF3
:103CA00010D07B685B6A591C7A6851627A68126826
:103CB0001269D2B21A707B685B8D9BB2013B9AB2DB
:103CC0007B685A85002318460C37BD465DF8047B97
:103CD000704700BF80B584B000AF78600023FB73ED
:103CE0000023BB817B681B689B6903F00403002BE6
:103CF00001D10123FB737B681B689B6903F0800380
:103D0000002B03D17B68DB68BB8102E07B689B6989
:103D1000BB81BA89FB7B19467868FFF71DFA00233F
:103D200018461037BD4680BD80B584B000AF7860BE
:103D30007B6893F83D30DBB2FB607B681B687A6878
:103D40001268526822F4E0625A600023BB607B680C
:103D50001B685B69BB607B681B687A6812681268C5
:103D600042F001021A60BB687B681B687A681268BF
:103D7000126822F480621A60FB68282B05D0FB6869
:103D80002A2B02D0FB68292B11D17B68154ADA62F5
:103D90007B6800221A637B68202283F83D207B68C1
:103DA000002283F83E207868FFF7E4F914E07B688E
:103DB0001B6B222B02D0FB68222B0DD17B680022CB
:103DC0001A637B68202283F83D207B68002283F8F9
:103DD0003E207868FFF7B6F9002318461037BD4635
:103DE00080BD00BF0000FFFF80B586B000AF7860E7
:103DF0007B6893F83D30DBB27B617B68DB6A3B61BB
:103E00003B69042B02D03B69082B29D17B69282B05
:103E100026D17B68334ADA627B681B687A6812684D
:103E2000526822F4E0625A607B681B686FF480621B
:103E30005A617B681B687A681268126822F4806293
:103E40001A607B6800221A637B68202283F83D2079
:103E50007B68002283F83E207868FFF78BF93BE00F
:103E60007B69212B33D17B681E4ADA627B6893F829
:103E70003D30DBB203F00303FB607B6893F83E3018
:103E8000DBB21A46FB681A437B681A637B68202200
:103E900083F83D207B68002283F83E207B681B6806
:103EA0007A681268526822F4E0625A607B681B6884
:103EB0006FF480625A617B681B687A6812681268C6
:103EC00022F480621A607868FFF732F904E07B68B8
:103ED0001B686FF480625A61002318461837BD468C
:103EE00080BD00BF0000FFFF80B584B000AF7860E8
:103EF0007B6893F83D30DBB2FB60FB68292B02D076
:103F0000FB682A2B07D17B6800221A637B68282272
:103F100083F83D2010E07B6893F83D30DBB2602BE6
:103F200003D07B68202283F83D207B6800221A633F
:103F30007B68002283F83E207B681B687A681268E1
:103F4000126822F400621A607B681B681B6803F425
:103F50000063002B37D07B681B687A681268526850
:103F600022F400625A607B685B6B002B13D07B6885
:103F70005B6B2E4A1A657B685B6B184608F094FEF3
:103F80000346002B30D07B685B6B1B6D7A68526BED
:103F90001046984728E07B689B6B002B24D07B68F9
:103FA0009B6B224A1A657B689B6B184608F07CFE67
:103FB0000346002B18D07B689B6B1B6D7A68926B55
:103FC0001046984710E07B6893F83D30DBB2602BD9
:103FD00007D17B68202283F83D207868FFF7F2F84C
:103FE00002E07868FFF7E4F87B6893F83D30DBB2D5
:103FF000282B16D17B681B6C03F00403002B10D018
:104000007B680B4ADA627B6800221A637B68202295
:1040100083F83D207B68002283F83E207868FFF714
:10402000A9F800BF1037BD4680BD00BF014700089A
:104030000000FFFF80B588B002AFF8607A603B6097
:104040000B467B81FB68DB6A7B617B69042B06D0B6
:104050007B69012B03D07B6913F5803F08D1FB6896
:104060001B68FA681268126842F480721A600BE0EA
:10407000FB681B6B122B07D1FB681B68FA68126880
:10408000126842F480721A603B6800937B680022D9
:104090004FF00111F86800F06FFB0346002B01D0D0
:1040A000032341E0FB681B69B3F5804F07D1FB6830
:1040B0001B687A89D2B202F0FE021A6122E0FB6824
:1040C0001B687A89D21152B202F0060252B262F033
:1040D0000F0252B2D2B21A613B687A681449F8688A
:1040E00000F098FB0346002B07D0FB681B6C042BE9
:1040F00001D1012318E0032316E0FB681B687A89CD
:10410000D2B21A613B687A680A49F86800F082FB0B
:104110000346002B07D0FB681B6C042B01D1012345
:1041200002E0032300E0002318461837BD4680BD97
:10413000080001000200010080B588B002AFF860FD
:104140007A603B600B467B81FB68DB6A7B617B6945
:10415000042B06D07B69012B03D07B6913F5803FCC
:1041600010D1FB681B68FA681268126842F480621A
:104170001A60FB681B68FA681268126842F4807261
:104180001A6013E0FB681B6B112B0FD1FB681B68D7
:10419000FA681268126842F480621A60FB681B6851
:1041A000FA681268126842F480721A603B680093E1
:1041B0007B6800224FF00111F86800F0DDFA034639
:1041C000002B01D0032381E0FB681B69B3F5804F0E
:1041D00008D1FB681B687A89D2B242F00102D2B2E0
:1041E0001A6161E0FB681B687A89D21152B202F051
:1041F000060252B262F00F0252B2D2B21A613B68AA
:104200007A683449F86800F005FB0346002B07D0B4
:10421000FB681B6C042B01D1012357E0032355E0FD
:10422000FB681B687A89D2B21A613B687A682A49AE
:10423000F86800F0EFFA0346002B07D0FB681B6C10
:10424000042B01D1012341E003233FE000233B6124
:10425000FB681B685B693B61FB681B689B693B6192
:104260003B69FB681B68FA681268126842F4807246
:104270001A603B6800937B6800224FF00111F868D8
:1042800000F07AFA0346002B01D003231EE0FB68FE
:104290001B687A89D21152B202F0060252B262F061
:1042A0000E0252B2D2B21A613B687A680A49F868C3
:1042B00000F0B0FA0346002B07D0FB681B6C042B00
:1042C00001D1012302E0032300E000231846183740
:1042D000BD4680BD080001000200010080B588B025
:1042E00002AFF860084611461A4603467B810B462A
:1042F0003B811346FB80FB681B68FA6812681268F2
:1043000042F480721A607B6A00933B6A00224FF08D
:104310000111F86800F030FA0346002B01D00323A6
:1043200068E0FB681B687A89D2B202F0FE021A616B
:104330007B6A3A6A3149F86800F06CFA0346002B50
:1043400007D0FB681B6C042B01D1012352E003232F
:1043500050E000237B61FB681B685B697B61FB6845
:104360001B689B697B617B697A6A396AF86800F02F
:10437000BFFA0346002B0FD0FB681B6C042B09D13E
:10438000FB681B68FA681268126842F400721A60CF
:1043900001232FE003232DE0FB88012B05D1FB68CF
:1043A0001B683A89D2B21A6123E0FB681B683A891C
:1043B000120A92B2D2B21A617A6A396AF86800F0C7
:1043C00097FA0346002B0FD0FB681B6C042B09D116
:1043D000FB681B68FA681268126842F400721A607F
:1043E000012307E0032305E0FB681B683A89D2B28A
:1043F0001A61002318461837BD4680BD020001002F
:1044000080B588B002AFF860084611461A460346E8
:104410007B810B463B811346FB80FB681B68FA6877
:104420001268126842F480621A60FB681B68FA68BE
:104430001268126842F480721A607B6A00933B6AC9
:1044400000224FF00111F86800F096F90346002BA6
:1044500001D00323AFE0FB681B687A89D2B202F077
:10446000FE021A617B6A3A6A5549F86800F0D2F98F
:104470000346002B07D0FB681B6C042B01D10123E2
:1044800099E0032397E000237B61FB681B685B696D
:104490007B61FB681B689B697B617B697A6A396A0F
:1044A000F86800F025FA0346002B0FD0FB681B6C60
:1044B000042B09D1FB681B68FA681268126842F481
:1044C00000721A60012376E0032374E0FB88012B5D
:1044D00005D1FB681B683A89D2B21A6123E0FB68F8
:1044E0001B683A89120A92B2D2B21A617A6A396AA0
:1044F000F86800F0FDF90346002B0FD0FB681B6C39
:10450000042B09D1FB681B68FA681268126842F430
:1045100000721A6001234EE003234CE0FB681B6825
:104520003A89D2B21A617A6A396AF86800F0E0F919
:104530000346002B0FD0FB681B6C042B09D1FB68D2
:104540001B68FA681268126842F400721A6001234C
:1045500031E003232FE0FB681B68FA6812681268D9
:1045600042F480721A607B6A00933B6A00224FF02B
:104570000111F86800F000F90346002B01D0032375
:1045800019E0FB681B687A89D2B242F00102D2B20C
:104590001A617B6A3A6A0A49F86800F03BF90346F7
:1045A000002B07D0FB681B6C042B01D1012302E018
:1045B000032300E0002318461837BD4680BD00BF26
:1045C0000200010080B586B000AF78607B689B6B0D
:1045D0007B617B6993F83D30DBB23B617B6993F88B
:1045E0003E30DBB2FB603B69212B05D03B69222BBF
:1045F00016D1FB68202B13D17B691B687A6912687E
:10460000526822F400625A607B6900225A857B69F5
:104610001B687A691268526842F440725A6043E03B
:104620007B691B687A691268126822F480621A60DA
:104630007B691B687A691268126842F400721A601A
:104640007B691B687A691268526822F480525A604A
:104650007B691B687A691268526822F400625A60AA
:104660007B6900225A857B691B6C002B03D078691B
:10467000FEF79EFD18E07B69202283F83D207B69D0
:1046800093F83E30DBB2402B07D17B69002283F8E0
:104690003E207869FEF782FD06E07B69002283F800
:1046A0003E207869FEF73AFD00BF1837BD4680BD51
:1046B00080B584B000AF78607B689B6BFB60FB6863
:1046C0001B68FA681268126822F480621A60FB683C
:1046D00000225A85FB68202283F83D20FB680022D7
:1046E00083F83E20FB681B6C43F01002FB681A64E1
:1046F000F868FEF75DFD00BF1037BD4680BD00BF06
:1047000080B584B000AF78607B689B6BFB60FB6812
:104710001B68FA681268126822F480621A60FB68EB
:1047200000225A85FB685B6B00221A65FB689B6B55
:1047300000221A65FB6893F83D30DBB2602B0BD189
:10474000FB68202283F83D20FB68002283F83E208E
:10475000F868FEF737FD0AE0FB68202283F83D2069
:10476000FB68002283F83E20F868FEF721FD00BFB9
:104770001037BD4680BD00BF80B584B000AFF86083
:10478000B9603B601346FB711BE03B68B3F1FF3F30
:1047900017D03B68002B07D009F09CFD0246BB698F
:1047A000D21A3B689A420CD9FB6800221A63FB6854
:1047B000202283F83D20FB68002283F83C2003235D
:1047C00023E0BB681B0CDBB2012B0DD1FB681B681F
:1047D0005B69DA43BB6813409BB2002B0CBF01231B
:1047E0000023DBB21A460CE0FB681B689B69DA43C6
:1047F000BB6813409BB2002B0CBF01230023DBB22C
:104800001A46FB799A42C0D0002318461037BD469D
:1048100080BD00BF80B584B000AFF860B9607A6039
:104820003B603FE0FB681B685B6903F48063002B1F
:104830001CD0FB681B68FA681268126842F40072A8
:104840001A60FB681B686FF480625A61FB6804227F
:104850001A64FB6800221A63FB68202283F83D205B
:10486000FB68002283F83C2001233CE07B68B3F125
:10487000FF3F17D07B68002B07D009F02BFD0246C5
:104880003B68D21A7B689A420CD9FB6800221A63F3
:10489000FB68202283F83D20FB68002283F83C203F
:1048A000032320E0BB681B0CDBB2012B0CD1FB689F
:1048B0001B685B69DA43BB6813409BB2002B14BFD3
:1048C00001230023DBB20BE0FB681B689B69DA4322
:1048D000BB6813409BB2002B14BF01230023DBB243
:1048E000002B9FD1002318461037BD4680BD00BF66
:1048F00080B584B000AFF860B9607A6029E0F868EC
:1049000000F0F6F80346002B01D0012329E0BB6834
:10491000B3F1FF3F1DD0BB68002B07D009F0DAFCD4
:1049200002467B68D21ABB689A4212D9FB681B6C9C
:1049300043F02002FB681A64FB6800221A63FB68DC
:10494000202283F83D20FB68002283F83C200323CB
:1049500007E0FB681B685B6903F08003002BCED087
:10496000002318461037BD4680BD00BF80B584B017
:1049700000AFF860B9607A6029E0F86800F0B8F834
:104980000346002B01D0012329E0BB68B3F1FF3FB0
:104990001DD0BB68002B07D009F09CFC02467B6849
:1049A000D21ABB689A4212D9FB681B6C43F02002F2
:1049B000FB681A64FB6800221A63FB68202283F8F4
:1049C0003D20FB68002283F83C20032307E0FB68BE
:1049D0001B685B6903F00403002BCED0002318464C
:1049E0001037BD4680BD00BF80B584B000AFF86011
:1049F000B9607A6025E0F86800F07AF80346002B89
:104A000001D0012325E0BB68002B07D009F062FC30
:104A100002467B68D21ABB689A4212D9FB681B6CAB
:104A200043F02002FB681A64FB6800221A63FB68EB
:104A3000202283F83D20FB68002283F83C200323DA
:104A400007E0FB681B685B6903F01003002BD2D002
:104A5000002318461037BD4680BD00BF80B584B026
:104A600000AFF860B9607A6036E0FB681B685B698C
:104A700003F01003002B14D0FB681B686FF01002CA
:104A80005A61FB6800221A64FB6800221A63FB6803
:104A9000202283F83D20FB68002283F83C2001237C
:104AA00022E0BB68002B07D009F014FC02467B68AB
:104AB000D21ABB689A420FD9FB681B6C43F02002E4
:104AC000FB681A64FB68202283F83D20FB68002203
:104AD00083F83C20032307E0FB681B685B6903F055
:104AE0004003002BC1D0002318461037BD4680BDBF
:104AF00080B483B000AF78607B681B685B6903F4A7
:104B00008063002B14D07B681B686FF480625A614D
:104B10007B6804221A647B6800221A637B68202267
:104B200083F83D207B68002283F83C20012300E0CD
:104B3000002318460C37BD465DF8047B704700BF64
:104B400080B489B000AF7860396000237B610023B6
:104B50003B610023BB610023FB616BE10122FB6928
:104B600002FA03F37B613B681A687B6913403B617F
:104B70003A697B699A4240F05A813B685B68022B34
:104B800003D03B685B68122B23D1FB69DA087B6892
:104B9000083253F82230BB61FB6903F007039B0026
:104BA0000F2202FA03F3DB43BA691340BB613B688F
:104BB0001A69FB6903F007039B0002FA03F3BA6961
:104BC0001343BB61FB69DA087B680832B96943F8B3
:104BD00022107B681B68BB61FB695B00032202FA41
:104BE00003F3DB43BA691340BB613B685B6803F0C6
:104BF0000302FB695B0002FA03F3BA691343BB616A
:104C00007B68BA691A603B685B68012B0BD03B6814
:104C10005B68022B07D03B685B68112B03D03B68B5
:104C20005B68122B30D17B689B68BB61FB695B00C2
:104C3000032202FA03F3DB43BA691340BB613B680A
:104C4000DA68FB695B0002FA03F3BA691343BB61DC
:104C50007B68BA699A607B685B68BB610122FB690B
:104C600002FA03F3DB43BA691340BB613B685B683C
:104C70001B0903F00102FB6902FA03F3BA6913434B
:104C8000BB617B68BA695A607B68DB68BB61FB69A2
:104C90005B00032202FA03F3DB43BA691340BB61F2
:104CA0003B689A68FB695B0002FA03F3BA69134335
:104CB000BB617B68BA69DA603B685B6803F080536C
:104CC000002B00F0B4800023FB605F4A5E4B5B6CFE
:104CD00043F4804353645C4B5B6C03F48043FB60A0
:104CE000FB685A4AFB699B08023352F82330BB61C8
:104CF000FB6903F003039B000F2202FA03F3DB437B
:104D0000BA691340BB617B68514A93422BD07B68E0
:104D1000504A934225D07B684F4A93421FD07B680C
:104D20004E4A934219D07B684D4A934213D07B6818
:104D30004C4A93420DD07B684B4A934207D07B6824
:104D40004A4A934201D107230EE008230CE00623D0
:104D50000AE0052308E0042306E0032304E002231D
:104D600002E0012300E00023FA6902F0030292004E
:104D70009340BA691343BB613449FB699B08023312
:104D8000BA6941F823203A4B1B68BB613B69DB439E
:104D9000BA691340BB613B685B6803F48033002B46
:104DA00003D0BA693B691343BB61314ABB691360E5
:104DB0002F4B5B68BB613B69DB43BA691340BB6146
:104DC0003B685B6803F40033002B03D0BA693B698E
:104DD0001343BB61264ABB695360254B9B68BB618B
:104DE0003B69DB43BA691340BB613B685B6803F412
:104DF0008013002B03D0BA693B691343BB611C4A83
:104E0000BB6993601A4BDB68BB613B69DB43BA69E2
:104E10001340BB613B685B6803F40013002B03D0B5
:104E2000BA693B691343BB61114ABB69D360FB6933
:104E30000133FB61FB690F2B7FF690AE00BF243777
:104E4000BD465DF8047B70470038024000380140E1
:104E5000000002400004024000080240000C024032
:104E6000001002400014024000180240001C0240E2
:104E7000003C014080B487B000AF78603960002307
:104E80003B610023FB600023BB6000237B61CEE01D
:104E900001227B6902FA03F33B613A683B691340E4
:104EA000FB60FA683B699A4240F0BE807B681A68F2
:104EB0007B695B00032101FA03F3DB431A407B6843
:104EC0001A607B69DA087B69D9087B68083153F876
:104ED00021107B6903F007039B000F2000FA03F306
:104EE000DB4319407B68083243F822107B689A68DC
:104EF0007B695B00032101FA03F3DB431A407B6803
:104F00009A607B685A6801217B6901FA03F3DB43ED
:104F10001A407B685A607B68DA687B695B00032112
:104F200001FA03F3DB431A407B68DA60454A7B6988
:104F30009B08023352F82330BB607B6903F0030304
:104F40009B000F2202FA03F3BA681340BB607B6830
:104F50003D4A93422BD07B683C4A934225D07B68E4
:104F60003B4A93421FD07B683A4A934219D07B68F0
:104F7000394A934213D07B68384A93420DD07B68FC
:104F8000374A934207D07B68364A934201D10723C0
:104F90000EE008230CE006230AE0052308E00423C2
:104FA00006E0032304E0022302E0012300E00023E3
:104FB0007A6902F00302920003FA02F2BB689A4295
:104FC00032D17B6903F003039B000F2202FA03F343
:104FD000BB601C487B699B081A497A6992080232B7
:104FE00051F82210BA68D2430A40023340F8232015
:104FF0001D491D4B1A68FB68DB4313400B601A49BF
:10500000194B5A68FB68DB4313404B601649164B3B
:105010009A68FB68DB4313408B601349124BDA68D4
:10502000FB68DB431340CB607B6901337B617B69A9
:105030000F2B7FF62DAF00BF1C37BD465DF8047BFC
:10504000704700BF003801400000024000040240E9
:1050500000080240000C0240001002400014024010
:1050600000180240001C0240003C014080B485B0A2
:1050700000AF78600B467B807B681A697B881340A1
:10508000002B02D00123FB7301E00023FB73FB7BA9
:1050900018461437BD465DF8047B704780B483B072
:1050A00000AF78600B467B8013467B707B78002BCB
:1050B00003D07A887B689A6103E07B881A047B6856
:1050C0009A6100BF0C37BD465DF8047B704700BF96
:1050D00080B483B000AF78600B467B807B685A69F0
:1050E0007B885A407B685A6100BF0C37BD465DF82B
:1050F000047B704780B485B000AF78600B467B803E
:105100004FF48033FB607A88FB681343FB60FA68D6
:105110007B68DA617A887B68DA61FA687B68DA61D1
:105120007B68DB69FB607B68DB6903F48033002B01
:1051300001D0002300E0012318461437BD465DF876
:10514000047B704780B582B000AF0346FB80084BFC
:105150005A69FB881340002B06D0054AFB8853612F
:10516000FB88184600F006F800BF0837BD4680BD32
:10517000003C014080B483B000AF0346FB8000BF19
:105180000C37BD465DF8047B704700BF80B483B028
:1051900000AF78607B6803F108027B685A607B6827
:1051A0004FF0FF329A607B6803F108027B68DA6097
:1051B0007B6803F108027B681A617B6800221A6031
:1051C00000BF0C37BD465DF8047B704780B483B0E8
:1051D00000AF78607B6800221A6100BF0C37BD46C3
:1051E0005DF8047B704700BF80B485B000AF786085
:1051F00039607B685B68FB603B68FA685A60FB68F3
:105200009A683B689A60FB689B683A685A60FB68DA
:105210003A689A603B687A681A617B681B685A1C16
:105220007B681A6000BF1437BD465DF8047B704789
:1052300080B485B000AF786039603B681B68BB60A4
:10524000BB68B3F1FF3F03D17B681B69FB600CE0D7
:105250007B680833FB6002E0FB685B68FB60FB680F
:105260005B681A68BB689A42F6D9FB685A683B6863
:105270005A603B685B683A689A603B68FA689A6073
:10528000FB683A685A603B687A681A617B681B68F9
:105290005A1C7B681A6000BF1437BD465DF8047B5A
:1052A000704700BF80B485B000AF78607B681B6931
:1052B000FB607B685B687A6892689A607B689B6831
:1052C0007A6852685A60FB685A687B689A4203D1D0
:1052D0007B689A68FB685A607B6800221A61FB68E9
:1052E0001B685A1EFB681A60FB681B681846143757
:1052F000BD465DF8047B704780B584B000AF786030
:1053000039607B68FB60FB68002B09D14FF05003CC
:1053100083F31188BFF36F8FBFF34F8FBB60FEE73E
:105320000BF0AEF9FB681A68FB68DB6BF968096C77
:1053300001FB03F31A44FB685A60FB6800229A637E
:10534000FB681A68FB689A60FB681A68FB68DB6B8D
:10535000013BF968096C01FB03F31A44FB68DA604E
:10536000FB68FF2283F84420FB68FF2283F8452076
:105370003B68002B14D1FB681B69002B1AD0FB681B
:10538000103318460AF0D2F80346002B12D00D4B0A
:105390004FF080521A60BFF34F8FBFF36F8F09E059
:1053A000FB6810331846FFF7F1FEFB6824331846FC
:1053B000FFF7ECFE0BF092F9012318461037BD46BB
:1053C00080BD00BF04ED00E080B58AB002AFF86098
:1053D000B9601346FB71FB68002B09D14FF05003F5
:1053E00083F31188BFF36F8FBFF34F8F3B61FEE7ED
:1053F000BB68002B02D10023FB6104E0FB68BA68A4
:1054000002FB03F3FB61FB69503318460BF04AFAC9
:10541000B861BB69002B0BD0BB6950337B61FA7953
:10542000BB69009313467A69B968F86800F006F81A
:10543000BB6918462037BD4680BD00BF80B584B02B
:1054400000AFF860B9607A60FB70BB68002B03D1D5
:10545000BB69BA691A6002E0BB697A681A60BB6905
:10546000FA68DA63BB69BA681A640121B869FFF7A0
:1054700043FFBB69FA7883F84C2000BF1037BD4664
:1054800080BD00BF80B582B000AF78607B68002B24
:105490000ED07B6800225A607B6800221A607B680D
:1054A0000022DA60002300220021786800F01CF856
:1054B00000BF0837BD4680BD80B586B000AF03464B
:1054C000FB7101237B6100233B61FB791A4639693B
:1054D0007869FFF779FFF860F868FFF7D3FFFB689A
:1054E00018461837BD4680BD80B58EB000AFF86055
:1054F000B9607A603B6000237B63FB683B633B6B76
:10550000002B09D14FF0500383F31188BFF36F8F45
:10551000BFF34F8FFB61FEE7BB68002B03D13B6BF2
:105520001B6C002B01D1012300E00023002B09D1CB
:105530004FF0500383F31188BFF36F8FBFF34F8F8A
:105540003B62FEE73B68022B03D13B6BDB6B012B1D
:1055500001D1012300E00023002B09D14FF05003BB
:1055600083F31188BFF36F8FBFF34F8F7B62FEE72A
:105570000AF002FB0346002B02D17B68002B01D10D
:10558000012300E00023002B09D14FF0500383F3E7
:105590001188BFF36F8FBFF34F8FBB62FEE70BF035
:1055A0006FF83B6B9A6B3B6BDB6B9A4202D33B68A9
:1055B000022B29D13A68B968386B00F045FCF862D3
:1055C0003B6B5B6A002B10D03B6B2433184609F011
:1055D000ADFF0346002B13D03F4B4FF080521A60B3
:1055E000BFF34F8FBFF36F8F0AE0FB6A002B07D02A
:1055F000394B4FF080521A60BFF34F8FBFF36F8F5C
:105600000BF06CF8012363E07B68002B03D10BF0F7
:1056100065F800235CE07B6B002B06D107F11403D7
:1056200018460AF04BF801237B630BF057F809F09A
:105630007FFC0BF025F83B6B93F844305BB2B3F181
:10564000FF3F03D13B6B002283F844203B6B93F870
:1056500045305BB2B3F1FF3F03D13B6B002283F8CF
:1056600045200BF03BF83A1D07F11403114618468C
:105670000AF048F80346002B24D1386B00F0FEFCFA
:105680000346002B18D03B6B10337A68114618463E
:1056900009F0EEFE386B00F067FC09F057FC03469A
:1056A000002B7FF47CAF0C4B4FF080521A60BFF39D
:1056B0004F8FBFF36F8F72E7386B00F055FC09F026
:1056C00045FC6CE7386B00F04FFC09F03FFC002311
:1056D00018463837BD4680BD04ED00E080B58EB079
:1056E00000AFF860B9607A603B60FB683B633B6B7E
:1056F000002B09D14FF0500383F31188BFF36F8F54
:10570000BFF34F8F7B61FEE7BB68002B03D13B6B80
:105710001B6C002B01D1012300E00023002B09D1D9
:105720004FF0500383F31188BFF36F8FBFF34F8F98
:10573000BB61FEE73B68022B03D13B6BDB6B012BAC
:1057400001D1012300E00023002B09D14FF05003C9
:1057500083F31188BFF36F8FBFF34F8FFB61FEE7B9
:105760000BF05EF8EFF311824FF0500383F31188D2
:10577000BFF36F8FBFF34F8F3A623B613B6ABB62EF
:105780003B6B9A6B3B6BDB6B9A4202D33B68022B01
:105790002CD13B6B93F8453087F827303A68B968CD
:1057A000386B00F051FB97F92730B3F1FF3F12D16E
:1057B0003B6B5B6A002B16D03B6B2433184609F019
:1057C000B5FE0346002B0ED07B68002B0BD07B6808
:1057D00001221A6007E097F827300133DBB25AB292
:1057E0003B6B83F8452001237B6301E000237B634F
:1057F000BB6AFB62FB6A83F311887B6B1846383700
:10580000BD4680BD80B58EB000AF786039607B68E2
:105810003B633B6B002B09D14FF0500383F311889E
:10582000BFF36F8FBFF34F8F3B61FEE73B6B1B6C8A
:10583000002B09D04FF0500383F31188BFF36F8F13
:10584000BFF34F8F7B61FEE73B6B1B68002B03D1DF
:105850003B6B5B68002B01D1012300E00023002B90
:1058600009D14FF0500383F31188BFF36F8FBFF35B
:105870004F8FBB61FEE70AF0D3FFEFF311824FF0C9
:10588000500383F31188BFF36F8FBFF34F8FFA611B
:10589000FB60FB69BB623B6B9B6B7B623B6BDA6BB8
:1058A0007B6A9A422BD93B6B93F8453087F82330BB
:1058B0007B6A5A1C3B6B9A6397F92330B3F1FF3F25
:1058C00012D13B6B5B6A002B16D03B6B243318461E
:1058D00009F02CFE0346002B0ED03B68002B0BD0AA
:1058E0003B6801221A6007E097F823300133DBB2EE
:1058F0005AB23B6B83F8452001237B6301E0002310
:105900007B63BB6AFB62FB6A83F311887B6B18467F
:105910003837BD4680BD00BF80B58EB000AFF8609F
:10592000B9607A603B6000237B63FB683B633B6B41
:10593000002B09D14FF0500383F31188BFF36F8F11
:10594000BFF34F8FFB61FEE7BB68002B03D13B6BBE
:105950001B6C002B01D1012300E00023002B09D197
:105960004FF0500383F31188BFF36F8FBFF34F8F56
:105970003B62FEE70AF000F90346002B02D17B6888
:10598000002B01D1012300E00023002B09D14FF0AF
:10599000500383F31188BFF36F8FBFF34F8F7B6288
:1059A000FEE70AF06DFE3B6B9B6BFB62FB6A002B14
:1059B00046D03B6BDB68BB62B968386B00F0AEFA6F
:1059C0003B68002B21D1FB6A5A1E3B6B9A633B6BF1
:1059D0001B68002B04D10AF0FFF902463B6B5A60AA
:1059E0003B6B1B69002B27D03B6B1033184609F02B
:1059F0009DFD0346002B1FD04F4B4FF080521A6085
:105A0000BFF34F8FBFF36F8F16E03B6BBA6ADA605C
:105A10003B6B5B6A002B0FD03B6B2433184609F0BD
:105A200085FD0346002B07D0434B4FF080521A6090
:105A3000BFF34F8FBFF36F8F0AF050FE012377E063
:105A40007B68002B03D10AF049FE002370E07B6BDA
:105A5000002B06D107F11403184609F02FFE01238D
:105A60007B630AF03BFE09F063FA0AF009FE3B6B28
:105A700093F844305BB2B3F1FF3F03D13B6B00229C
:105A800083F844203B6B93F845305BB2B3F1FF3FA2
:105A900003D13B6B002283F845200AF01FFE3A1D1C
:105AA00007F114031146184609F02CFE0346002B9B
:105AB00031D1386B00F0AAFA0346002B25D03B6B9E
:105AC0001B68002B08D10AF0DBFD3B6B5B681846B6
:105AD0000AF070F80AF002FE3B6B24337A68114634
